:100000000C942A000C9447000C9447000C94470071
:100010000C9447000C9447000C9447000C94470044
:100020000C9447000C9447000C9447000C94470034
:100030000C9447000C9447000C9447000C94470024
:100040000C9447000C9447000C9447000C94470014
:100050000C94470011241FBECFE5D8E0DEBFCDBF12
:1000600010E0A0E6B0E0E8E0F3E002C005900D92F9
:10007000A43BB107D9F720E0A4EBB0E001C01D928A
:10008000AA3BB207E1F70E9449000C9482010C944C
:10009000000087E690E00E945C0085E390E00E940B
:1000A000D7000E944A018FEF81BB0E946D0180E65C
:1000B00090E00E946700FBCF10BC89B988E18AB943
:1000C00086E880BD08955D9BFECF8CB90895CF93DF
:1000D000DF93EC018881882331F021960E94630030
:1000E00089918111FBCF8AE00E946300DF91CF915B
:1000F0000895E091B800F091B900982F92959F7003
:100100009083662341F0E091B800F091B9009081AE
:100110009F7B908307C0E091B800F091B900908177
:1001200090649083E091B800F091B90090819F7D38
:100130009083E091B800F091B90090819061908334
:100140009AE09A95F1F700C0E091B800F091B900FB
:1001500090819F7E9083EFE9FFE03197F1F700C037
:100160000000E091B800F091B900A091B400B09106
:10017000B5009C918F70907F892B8083E091B800AF
:10018000F091B900808180618083FAE0FA95F1F7FF
:1001900000C0E091B800F091B90080818F7E80832B
:1001A0008FE39CE90197F1F700C0000008952FEF5D
:1001B00033ED40E3215030404040E1F700C0000003
:1001C0009093B9008093B800FC013197F093B70089
:1001D000E093B60002979093B5008093B4008FEF40
:1001E0008083E091B800F091B90080818F7E808398
:1001F00061E083E30E94790061E082E30E9479007C
:1002000061E08CE20E94790061E08EE00E9479005A
:1002100061E081E00E94790061E086E00E9479005F
:100220000895CF93DF93EC018881882339F02196DC
:1002300060E00E94790089918111FACFDF91CF911E
:100240000895CF93DF9300D000D0CDB7DEB790E80C
:10025000998390EC9A8394E99B8394ED9C838150DD
:10026000FE01E60FF11D908161E0890F0E94790087
:100270008FE891E00197F1F700C000000F900F9018
:100280000F900F90DF91CF91089561E081E00E947F
:10029000790008950E94450161E081E00E942101FA
:1002A00086E690E00E94110162E081E00E94210157
:1002B00086E790E00E94110163E081E00E94210145
:1002C0008AE890E00E94110164E081E00E9421012F
:1002D0008FE990E00E941101089581E690E09BBDB6
:1002E0008ABD8FB5826C8FBD8FB58E7F8FBD8EB569
:1002F0008E618EBD87E893E197BD86BD81B3806333
:0803000081BB0895F894FFCFC2
:100308006B68756B690048617474696D6120546924
:100318006D2054696D0054617261204D6174686587
:1003280020506172652044696D00546164657220D3
:100338004B686172612032746F2053696E67005494
:100348006172612048617474696D612074696D20FF
:0403580074696D0057
:00000001FF
