S00E00004D79417070312E73726563FE
S11300000C942A000C9447000C9447000C9447006D
S11300100C9447000C9447000C9447000C94470040
S11300200C9447000C9447000C9447000C94470030
S11300300C9447000C9447000C9447000C94470020
S11300400C9447000C9447000C9447000C94470010
S11300500C94470011241FBECFE5D8E0DEBFCDBF0E
S113006010E0A0E6B0E0E4E8F2E002C005900D92F2
S1130070AC36B107D9F720E0ACE6B0E001C01D9280
S1130080A237B207E1F70E9458000C9440010C9487
S1130090000022E380E090E0FC013197F1F7FC01DD
S11300A03197F1F7FC013197F1F72150A9F7089541
S11300B00E942F0185E390E00E94E50089E690E02C
S11300C00E941F0182E390E00E943D010E944900CA
S11300D080E690E00E941F018CE391E00E943D01C4
S11300E00E94490083E690E00E941F0189EA91E0A2
S11300F00E943D010E94490087E690E00E941F0192
S11301008AE392E00E943D010E944900D7CFE0912A
S11301107000F0917100982F92959F7090836623E0
S113012041F0E0917000F091710090819F7B908389
S113013007C0E0917000F091710090819064908309
S1130140E0917000F091710090819F7D9083E09127
S11301507000F09171009081906190839AE09A957B
S1130160F1F700C0E0917000F091710090819F7EE2
S11301709083EFE9FFE03197F1F700C00000E091D0
S11301807000F0917100A0916C00B0916D009C9191
S11301908F70907F892B8083E0917000F0917100C3
S11301A0808180618083FAE0FA95F1F700C0E091E4
S11301B07000F091710080818F7E80838FE39CE9D1
S11301C00197F1F700C0000008952FEF33ED40E3ED
S11301D0215030404040E1F700C00000909371008E
S11301E080937000FC013197F0936F00E0936E00F0
S11301F0029790936D0080936C008FEF8083E09161
S11302007000F091710080818F7E808361E083E3D0
S11302100E94870061E082E30E94870061E08CE233
S11302200E94870061E08EE00E94870061E081E027
S11302300E94870061E086E00E9487000895CF93C2
S1130240DF93EC018881882339F0219660E00E94D5
S1130250870089918111FACFDF91CF9108958FB5ED
S1130260826A8FBD8EB58B618EBD87E893E197BDA1
S113027086BD81B3806381BB08959BBD8ABD08950B
S1070280F894FFCF1C
S10F0284393000313335003138300000CF
S9030000FC
