S00F0000546573744932432E73726563B7
S11300000C942A000C9447000C9447000C9447006D
S11300100C9447000C9447000C9447000C94470040
S11300200C9447000C9447000C9447000C94470030
S11300300C9447000C9447000C9447000C94470020
S11300400C9447000C9447000C9447000C94470010
S11300500C94470011241FBECFE5D8E0DEBFCDBF0E
S113006010E0A0E6B0E0E2ECFFE002C005900D92E3
S1130070AE3AB107D9F720E0AEEAB0E001C01D9274
S1130080A83BB207E1F70E9463000C94DF070C94CD
S11300900000CF93DF93C82FD62F0E9411022D2F7B
S11300A04FEF6FE78C2F0E9414028FE39CE90197B6
S11300B0F1F700C000004FEF6FE78C2F0E94310270
S11300C0DF91CF9108958BE390E00E949E0161E05F
S11300D081E00E94E80186E690E00E94D80187E66C
S11300E090E00E94260162E081E00E94E8018DE632
S11300F090E00E94D8018AE790E00E9431012FEF3E
S113010083ED90E3215080409040E1F700C000006F
S113011065E680EA0E944900853681F469E982EA4D
S11301200E944900893929F48AE690E00E94D801A6
S113013009C087E890E00E94D80104C087E990E0F4
S11301400E94D80180E190E00E94E703082F192F54
S1130150C7EAD0E00E9453020E94CC007F936F93C1
S1130160DF93CF931F930F930E940E050E940C02FE
S1130170802F912F0E94D8019FEF29E688E19150AA
S113018020408040E1F700C000000F900F900F90D6
S11301900F900F900F90DECF04D06894B11150C02F
S11301A0089533D088F09F5790F0B92F9927B7510D
S11301B0A0F0D1F0660F771F881F991F1AF0BA9527
S11301C0C9F712C0B13081F03AD0B1E0089537C018
S11301D0672F782F8827B85F39F0B93FCCF386951D
S11301E077956795B395D9F73EF49095809570957A
S11301F061957F4F8F4F9F4F089557FD9058440F3F
S1130200551F59F05F3F71F04795880F97FB991F71
S113021061F09F3F79F0879508951216130614062E
S1130220551FF2CF4695F1DF08C0161617061806BB
S1130230991FF1CF86957105610508940895E89496
S1130240BB2766277727CB0197F9089510BC89B996
S113025088E18AB986E880BD08955D9BFECF8CB99C
S11302600895CF93DF93EC018881882331F02196A0
S11302700E942D0189918111FBCFDF91CF910895C7
S1130280E091B200F091B300982F92959F70908303
S1130290662341F0E091B200F091B30090819F7B1E
S11302A0908307C0E091B200F091B3009081906414
S11302B09083E091B200F091B30090819F7D908390
S11302C0E091B200F091B3009081906190839AE044
S11302D09A95F1F700C0E091B200F091B3009081DB
S11302E09F7E9083EFE9FFE03197F1F700C00000B3
S11302F0E091B200F091B300A091AE00B091AF00D4
S11303009C918F70907F892B8083E091B200F09153
S1130310B300808180618083FAE0FA95F1F700C030
S1130320E091B200F091B30080818F7E80838FE3EF
S11303309CE90197F1F700C0000008952FEF33ED19
S113034040E3215030404040E1F700C0000090936A
S1130350B3008093B200FC013197F093B100E093B5
S1130360B00002979093AF008093AE008FEF80832C
S1130370E091B200F091B30080818F7E808361E0D0
S113038083E30E94400161E082E30E94400161E056
S11303908CE20E94400161E08EE00E94400161E035
S11303A081E00E94400161E086E00E9440010895DE
S11303B0CF93DF93EC018881882339F0219660E0A4
S11303C00E94400189918111FACFDF91CF91089564
S11303D0CF93DF9300D000D0CDB7DEB790E89983F8
S11303E090EC9A8394E99B8394ED9C838150FE0165
S11303F0E60FF11D908161E0890F0E9440018FE8B2
S113040091E00197F1F700C000000F900F900F905A
S11304100F90DF91CF91089561E081E00E94400147
S113042008950E94C90308950F931F93CF93DF93F8
S1130430082F162FD42FC22F0E94CF03802F0E9483
S1130440D703812F0E94D7038D2F0E94D7038C2FAF
S11304500E94D7030E94D403DF91CF911F910F9183
S113046008951F93CF93DF93C82F162FD42F0E9484
S1130470CF038C2F0E94D703812F0E94D7038D2F87
S11304800E94D7030E94CF0381E08C0F0E94D70300
S113049080E00E94DD03C82F0E94D4038C2FDF91DB
S11304A0CF911F9108958E98B99AC19A1DBC1CBC16
S11304B080E88FBD89E08EBD81EA90E09BBD8ABD56
S11304C008B604FEFDCF88B7806188BF1FBC1EBC80
S11304D0C1988FE193E00197F1F700C0000088B75D
S11304E0806288BF869BFECF1DBC1CBC88E08FBD8C
S11304F084E08EBD08B605FEFDCF66B577B51FBC9A
S11305001EBC88B7806288BF80E090E00E94FD0234
S113051020E030E040E851E40E94620320E030E053
S113052048E652E40E94950208950CD0BAC0B2D0B5
S113053040F0A9D030F021F45F3F19F09BC0511175
S11305407FCE9EC05ADE98F39923C9F35523B1F3A5
S1130550951B550BBB27AA2762177307840738F02E
S11305609F5F5F4F220F331F441FAA1FA9F333D08D
S11305700E2E3AF0E0E830D091505040E695001C41
S1130580CAF729D0FE2F27D0660F771F881FBB1FFD
S1130590261737074807AB07B0E809F0BB0B802DD7
S11305A0BF01FF2793585F4F2AF09E3F510568F023
S11305B061C046CE5F3FECF3983EDCF386957795B9
S11305C06795B795F7959F5FC9F7880F911D969525
S11305D0879597F90895E1E0660F771F881FBB1F81
S11305E0621773078407BA0720F0621B730B840B2E
S11305F0BA0BEE1F88F7E0950895E89409C097FBBD
S11306003EF490958095709561957F4F8F4F9F4FE5
S11306109923A9F0F92F96E9BB279395F695879529
S113062077956795B795F111F8CFFAF4BB0F11F4EC
S113063060FF1BC06F5F7F4F8F4F9F4F16C0882393
S113064011F096E911C0772321F09EE8872F762FC9
S113065005C0662371F096E8862F70E060E02AF00A
S11306609A95660F771F881FDAF7880F96958795F6
S113067097F9089597F99F6780E870E060E008951E
S11306809FEF80EC089500240A94161617061806A6
S11306900906089500240A94121613061406050682
S11306A00895092E0394000C11F4882352F0BB0F13
S11306B040F4BF2B11F460FF04C06F5F7F4F8F4F76
S11306C09F4F08950BD0EDCFDEDF28F0E3DF18F065
S11306D0952309F0CFCFD4CF1124B2CD8EDDA0F372
S11306E0959FD1F3950F50E0551F629FF001729FC3
S11306F0BB27F00DB11D639FAA27F00DB11DAA1FE2
S1130700649F6627B00DA11D661F829F2227B00D2E
S1130710A11D621F739FB00DA11D621F839FA00DB9
S1130720611D221F749F3327A00D611D231F849F09
S1130730600D211D822F762F6A2F11249F57504060
S11307408AF0E1F088234AF0EE0FFF1FBB1F661FFB
S1130750771F881F91505040A9F79E3F510570F0B4
S113076089CF6ECD5F3FECF3983EDCF386957795A9
S11307706795B795F795E7959F5FC1F7FE2B880FAF
S1130780911D9695879597F9089506B607FEFDCFB6
S1130790089511B880E280B984E086BF089584EAA0
S11307A086BF0E94C503089584E986BF089583B96E
S11307B084E886BF0E94C503089520E4829FC00197
S11307C01124846886BF0E94C50383B10895CF9322
S11307D0DF938230910510F482E090E0E091B6005E
S11307E0F091B70020E030E0A0E0B0E0309739F1BC
S11307F04081518148175907B8F04817590771F4D7
S113080082819381109729F013969C938E9312976B
S11308102CC09093B7008093B60027C021153105F2
S113082031F04217530718F0A901DB0101C0EF01B1
S11308309A01BD01DF010280F381E02DD7CF21159C
S11308403105F9F0281B390B2430310580F48A81F5
S11308509B816115710521F0FB019383828304C0A0
S11308609093B7008093B600FE01329644C0FE0117
S1130870E20FF31F81939193225031093983288326
S11308803AC02091B4003091B500232B41F420915B
S11308906200309163003093B5002093B40020913E
S11308A06000309161002115310541F42DB73EB748
S11308B04091640050916500241B350BE091B40015
S11308C0F091B500E217F307A0F42E1B3F0B281795
S11308D0390778F0AC014E5F5F4F2417350748F0B5
S11308E04E0F5F1F5093B5004093B40081939193D2
S11308F002C0E0E0F0E0CF01DF91CF910895CF9303
S1130900DF93009709F487C0FC01329713821282A7
S1130910C091B600D091B700209781F42081318135
S1130920280F391F8091B4009091B5008217930766
S113093079F5F093B500E093B4006DC0DE0120E0DA
S113094030E0AE17BF0750F412964D915C911397A7
S11309509D014115510509F1DA01F3CFB383A28357
S113096040815181840F951F8A179B0771F48D91E3
S11309709C911197840F951F029691838083129600
S11309808D919C911397938382832115310529F4CA
S1130990F093B700E093B6003EC0D9011396FC93E0
S11309A0EE9312974D915D91A40FB51FEA17FB07C3
S11309B079F480819181840F951F0296D901119653
S11309C09C938E938281938113969C938E9312971A
S11309D0E0E0F0E08A819B81009719F0FE01EC01D0
S11309E0F9CFCE01029628813981820F931F20917D
S11309F0B4003091B5002817390769F4309729F409
S1130A001092B7001092B60002C013821282D093E3
S1130A10B500C093B400DF91CF910895AEE0B0E08B
S1130A20E4E1F5E00C94B6070D891E8986E08C8319
S1130A301A8309838FEF9FE79E838D83AE01475E00
S1130A405F4F6F89788DCE0101960E943005EF814A
S1130A50F885E00FF11F10822E96E4E00C94D20783
S1130A60ACE0B0E0E6E3F5E00C94A8077C016B0190
S1130A708A01FC0117821682838181FFBDC1CE01E8
S1130A8001964C01F7019381F60193FD859193FF43
S1130A9081916F01882309F4ABC1853239F493FD48
S1130AA0859193FF81916F01853229F4B70190E01C
S1130AB00E941807E7CF512C312C20E02032A0F4FB
S1130AC08B3269F030F4803259F0833269F420615A
S1130AD02CC08D3239F0803339F4216026C0226075
S1130AE0246023C0286021C027FD27C030ED380FC3
S1130AF03A3078F426FF06C0FAE05F9E300D1124E8
S1130B00532E13C08AE0389E300D1124332E2062F8
S1130B100CC08E3221F426FD6BC1206406C08C36D5
S1130B2011F4206802C0883641F4F60193FD8591E2
S1130B3093FF81916F018111C1CF982F9F7D9554AF
S1130B40933028F40C5F1F4FFFE3F9830DC0833605
S1130B5031F0833771F0833509F05BC022C0F801AE
S1130B60808189830E5F1F4F44244394512C540188
S1130B7015C03801F2E06F0E711CF801A080B1803D
S1130B8026FF03C0652D70E002C06FEF7FEFC50143
S1130B902C870E940D072C0183012C852F77222E90
S1130BA017C03801F2E06F0E711CF801A080B1800B
S1130BB026FF03C0652D70E002C06FEF7FEFC50113
S1130BC02C870E9402072C012C852068222E830189
S1130BD023FC1BC0832D90E048165906B0F4B701DE
S1130BE080E290E00E9418073A94F4CFF50127FCC4
S1130BF0859127FE81915F01B70190E00E9418075B
S1130C0031103A94F1E04F1A51084114510471F72C
S1130C10E5C0843611F0893639F5F80127FF07C09D
S1130C2060817181828193810C5F1F4F08C0608154
S1130C307181882777FD8095982F0E5F1F4F2F763F
S1130C40B22E97FF09C090958095709561957F4F5E
S1130C508F4F9F4F2068B22E2AE030E0A4010E94FB
S1130C604A07A82EA81844C0853729F42F7EB22E2F
S1130C702AE030E025C0F22FF97FBF2E8F36C1F075
S1130C8018F4883579F0B4C0803719F0883721F02A
S1130C90AFC02F2F2061B22EB4FE0DC08B2D846007
S1130CA0B82E09C024FF0AC09F2F9660B92E06C033
S1130CB028E030E005C020E130E002C020E132E06D
S1130CC0F801B7FE07C060817181828193810C5F56
S1130CD01F4F06C06081718180E090E00E5F1F4F5E
S1130CE0A4010E944A07A82EA818FB2DFF77BF2E47
S1130CF0B6FE0BC02B2D2E7FA51450F4B4FE0AC0F3
S1130D00B2FC08C02B2D2E7E05C07A2C2B2D03C0DF
S1130D107A2C01C0752C24FF0DC0FE01EA0DF11DD3
S1130D208081803311F4297E09C022FF06C07394A8
S1130D30739404C0822F867809F0739423FD13C042
S1130D4020FF06C05A2C731418F4530C5718732C34
S1130D50731468F4B70180E290E02C870E941807AE
S1130D6073942C85F5CF731410F4371801C0312C0B
S1130D7024FF12C0B70180E390E02C870E9418077B
S1130D802C8522FF17C021FF03C088E590E002C034
S1130D9088E790E0B7010CC0822F867859F021FDD6
S1130DA002C080E201C08BE227FD8DE2B70190E032
S1130DB00E941807A51438F4B70180E390E00E945C
S1130DC018075A94F7CFAA94F401EA0DF11D808113
S1130DD0B70190E00E941807A110F5CF332009F461
S1130DE051CEB70180E290E00E9418073A94F6CF02
S1130DF0F7018681978102C08FEF9FEF2C96E2E185
S1130E000C94C407FC010590615070400110D8F7A0
S1130E10809590958E0F9F1F0895FC01615070403E
S1130E2001900110D8F7809590958E0F9F1F08951B
S1130E300F931F93CF93DF93182F092FEB018B810F
S1130E4081FD03C08FEF9FEF20C082FF10C04E8151
S1130E505F812C813D81421753077CF4E881F9813D
S1130E609F012F5F3F4F39832883108306C0E88595
S1130E70F985812F0995892B29F72E813F812F5FD1
S1130E803F4F3F832E83812F902FDF91CF911F916E
S1130E900F910895FA01AA27283051F1203181F1E8
S1130EA0E8946F936E7F6E5F7F4F8F4F9F4FAF4F6E
S1130EB0B1E03ED0B4E03CD0670F781F891F9A1F81
S1130EC0A11D680F791F8A1F911DA11D6A0F711D35
S1130ED0811D911DA11D20D009F468943F912AE041
S1130EE0269F11243019305D3193DEF6CF01089529
S1130EF0462F4770405D4193B3E00FD0C9F7F6CF5A
S1130F00462F4F70405D4A3318F0495D31FD405221
S1130F10419302D0A9F7EACFB4E0A69597958795B7
S1130F2077956795BA95C9F7009761057105089596
S1130F309B01AC010A2E0694579547953795279542
S1130F40BA95C9F7620F731F841F951FA01D0895DA
S1130F502F923F924F925F926F927F928F929F92C5
S1130F60AF92BF92CF92DF92EF92FF920F931F93B3
S1130F70CF93DF93CDB7DEB7CA1BDB0B0FB6F89464
S1130F80DEBF0FBECDBF09942A88398848885F84A4
S1130F906E847D848C849B84AA84B984C884DF8015
S1130FA0EE80FD800C811B81AA81B981CE0FD11DF9
S1130FB00FB6F894DEBF0FBECDBFED010895F894CF
S1050FC0FFCF5D
S1130FC20000B8002000415652204F4B00454550C6
S1130FD2524F4D20546573743A00454550524F4D5B
S1130FE220546573740A004641494C4544204545E2
S1130FF250524F4D2032004641494C45442045450C
S111100250524F4D203100443A202564000026
S9030000FC
