:100000000C942A000C9447000C9447000C94470071
:100010000C9447000C9447000C9447000C94470044
:100020000C9447000C9447000C9447000C94470034
:100030000C9447000C9447000C9447000C94470024
:100040000C9447000C9447000C9447000C94470014
:100050000C94470011241FBECFE5D8E0DEBFCDBF12
:1000600010E0A0E6B0E0E0EEF3E002C005900D92F3
:10007000AC38B107D9F720E0ACE8B0E001C01D9280
:10008000A239B207E1F70E9463000C94EE010C94D0
:100090000000CF93DF93C82FD62F0E948A012D2F07
:1000A0004DEC60E08C2F0E948D018FE39CE901975D
:1000B000F1F700C000004DEC60E08C2F0E94AA0117
:1000C000DF91CF9108958BE390E00E941C0161E0E5
:1000D00081E00E94660180E690E00E94560187E67A
:1000E00090E00E94A40062E081E00E94660187E641
:1000F00090E00E94560184E790E00E94AF002FEF4D
:1001000083ED90E3215080409040E1F700C0000073
:1001100065E680EA0E944900853681F469E982EA51
:100120000E944900893929F484E690E00E94560132
:100130000AC081E890E00E945601FACF81E890E081
:100140000E945601F5CFFFCF10BC89B988E18AB96A
:1001500086E880BD08955D9BFECF8CB90895CF934E
:10016000DF93EC018881882331F021960E94AB0057
:1001700089918111FBCFDF91CF910895E09190009B
:10018000F0919100982F92959F709083662341F093
:10019000E0919000F091910090819F7B908307C047
:1001A000E0919000F0919100908190649083E091B3
:1001B0009000F091910090819F7D9083E09190005C
:1001C000F09191009081906190839AE09A95F1F777
:1001D00000C0E0919000F091910090819F7E90830B
:1001E000EFE9FFE03197F1F700C00000E0919000E7
:1001F000F0919100A0918C00B0918D009C918F7036
:10020000907F892B8083E0919000F0919100808114
:1002100080618083FAE0FA95F1F700C0E0919000E8
:10022000F091910080818F7E80838FE39CE901971C
:10023000F1F700C0000008952FEF33ED40E32150A7
:1002400030404040E1F700C000009093910080935F
:100250009000FC013197F0938F00E0938E0002979D
:1002600090938D0080938C008FEF8083E0919000BD
:10027000F091910080818F7E808361E083E30E9412
:10028000BE0061E082E30E94BE0061E08CE20E9459
:10029000BE0061E08EE00E94BE0061E081E00E944D
:1002A000BE0061E086E00E94BE000895CF93DF9318
:1002B000EC018881882339F0219660E00E94BE001D
:1002C00089918111FACFDF91CF910895CF93DF9378
:1002D00000D000D0CDB7DEB790E8998390EC9A8338
:1002E00094E99B8394ED9C838150FE01E60FF11D00
:1002F000908161E0890F0E94BE008FE891E0019734
:10030000F1F700C000000F900F900F900F90DF9159
:10031000CF9108950E94D00108950F931F93CF931A
:10032000DF93082F162FD42FC22F0E94D601802FC3
:100330000E94DE01812F0E94DE018D2F0E94DE01CE
:100340008C2F0E94DE010E94DB01DF91CF911F9173
:100350000F9108951F93CF93DF93C82F162FD42F9B
:100360000E94D6018C2F0E94DE01812F0E94DE01A7
:100370008D2F0E94DE010E94D60181E08C0F0E9429
:10038000DE0180E00E94E401C82F0E94DB018C2F77
:10039000DF91CF911F91089506B607FEFDCF089516
:1003A00011B880E280B984E086BF089584EA86BFF0
:1003B0000E94CC01089584E986BF089583B984E83A
:1003C00086BF0E94CC01089520E4829FC0011124C1
:1003D000846886BF0E94CC0183B10895F894FFCF52
:1003E000415652204F4B00454550524F4D205465C9
:1003F00073743A00454550524F4D20546573740A4A
:0C040000004641494C45442121210000E8
:00000001FF
