:020000040000FA
:040000000CEF00F011
:10000800FACF03F0FBCF04F0E9CF05F017ED04F0C9
:04001800F7EF04F00A
:10080000000A53657474696E672075702075736291
:100810000053617262616E6920692047686F736876
:1008200000496E697469616C697A6564000006004C
:10083000EACF06F0E1CF07F0E2CF08F0D9CF09F018
:10084000DACF0AF0F3CF0BF0F4CF0CF0F6CF0DF0C7
:10085000F7CF0EF0F8CF0FF0F5CF10F0F29EF2B414
:1008600068EC05F0F28E10C0F5FF0FC0F8FF0EC067
:10087000F7FF0DC0F6FF0CC0F4FF0BC0F3FF0AC07A
:10088000DAFF09C0D9FF08C0E2FF07C0E1FF06C0D8
:10089000EAFF05C0E9FF04C0FBFF03C0FAFF110037
:1008A000186E18380F0B896E1704D8A402D08A9ED0
:1008B00001D08A8E8A9C8A8A000E126E020E116EF8
:1008C000C2EC04F08A9A030E126EE80E116EC2ECAE
:1008D00004F018500F0B896E8A8A000E126E020EF9
:1008E000116EC2EC04F08A9A0F0E126EA00E116EF9
:1008F000C2EC04F01200939E939C939A9290929271
:10090000929492968A9A83EC05F0010E176E330E3C
:1009100050EC04F0010E176E320E50EC04F0010E94
:10092000176E2C0E50EC04F0010E176E0E0E50ECEC
:1009300004F0010E176E010E50EC04F0010E176E5C
:10094000060E50EC04F01200939874EC05F0F28E51
:1009500059EC05F08A98010E246E49EC05F026EC5E
:1009600005F07BEC04F0080E1A6E110E196E0FECF8
:1009700005F0080E136E010E126EDEEC04F038EC7A
:1009800005F0FFD711C013F012C014F0D890133641
:100990001436D89013361436131E141E134A142A14
:1009A00013C015F014C016F015C0CEFF16C0CFFF4F
:1009B000CD809EA0FED7CD809E9012000AD012C09E
:1009C000F6FF13C0F7FF0800F5507DEC05F0124A62
:1009D000132A13501210D8B409D012C0F6FF13C056
:1009E000F7FF0800F5500009D8A4E9D71200256ADE
:1009F000100EF66E0B0EF76E000EF86E00EE1BF08A
:100A000010EE09F00900F5CFEEFFE550E150FAE1F4
:100A1000000EF86E080EF76E0001A4EF04F00CD083
:100A2000000E176E19C0F6FF1AC0F7FF0800F55048
:100A300050EC04F0194A1A2A19C0F6FF1AC0F7FF41
:100A40000800F5500009D8B41200EAD72504D8B43C
:100A50000ED0010E256EC78EC68A280EC66E280ED1
:100A6000C86E080E136E210E126EDEEC04F012003A
:100A7000000E6D6E6F906F926F9E6F886F946D8693
:100A8000000E696E000E686E000E6B6E000E6A6ED0
:100A90001200C20E126EF70E116E070ED56E11C047
:100AA000D6FF12C0D7FFD58EF2A4FED7D58EF29412
:100AB0001200C20E126EF70E116E070ED56E11C027
:100AC000D6FF12C0D7FFF28AF294F28ED58E1200B2
:100AD000C20E026EF70E016E01C0D6FF02C0D7FF34
:100AE000F294010E246E1200260EAF6EAC98AC8A02
:100AF000AC94AB8EAB88B8961200116E9EA8FED750
:100B000011C0ADFF1200CD9CCD98CD9ACD921200B0
:0A0B1000400809010D8002010300F6
:020000040020DA
:08000000FFFFFFFFFFFFFFFF00
:020000040030CA
:0E0000003002381EFF8181FF0FC00FE00F405D
:00000001FF
