S01700004763634170706C69636174696F6E312E737265635B
S11300000C942A000C9434000C9434000C943400A6
S11300100C9434000C9434000C9434000C9434008C
S11300200C9434000C9434000C9434000C9434007C
S11300300C9434000C9434000C9434000C9434006C
S11300400C9434000C9434000C9434000C9434005C
S11300500C94340011241FBECFE5D8E0DEBFCDBF21
S11300600E9436000C9451000C94000010BC87E6EA
S113007089B988E18AB986E880BD17BAB99AC09A65
S113008080E199E01DBC1CBC1BBC8ABD1FBC9EBD8D
S113009028B318BA08B604FEFDCFC19A1EBC88BFA7
S10900A0F1CFF894FFCF3C
S9030000FC
